{
  "contractName": "Multisend",
  "abi": [
    {
      "anonymous": false,
      "inputs": [
        {
          "indexed": true,
          "internalType": "address",
          "name": "previousOwner",
          "type": "address"
        },
        {
          "indexed": true,
          "internalType": "address",
          "name": "newOwner",
          "type": "address"
        }
      ],
      "name": "OwnershipTransferred",
      "type": "event"
    },
    {
      "anonymous": false,
      "inputs": [
        {
          "indexed": false,
          "internalType": "address",
          "name": "from",
          "type": "address"
        },
        {
          "indexed": false,
          "internalType": "uint256",
          "name": "total",
          "type": "uint256"
        }
      ],
      "name": "etherMultisended",
      "type": "event"
    },
    {
      "anonymous": false,
      "inputs": [
        {
          "indexed": false,
          "internalType": "address",
          "name": "from",
          "type": "address"
        },
        {
          "indexed": false,
          "internalType": "uint256",
          "name": "total",
          "type": "uint256"
        },
        {
          "indexed": false,
          "internalType": "address",
          "name": "tokenAddress",
          "type": "address"
        }
      ],
      "name": "tokenMultisended",
      "type": "event"
    },
    {
      "constant": true,
      "inputs": [],
      "name": "isOwner",
      "outputs": [
        {
          "internalType": "bool",
          "name": "",
          "type": "bool"
        }
      ],
      "payable": false,
      "stateMutability": "view",
      "type": "function"
    },
    {
      "constant": true,
      "inputs": [],
      "name": "owner",
      "outputs": [
        {
          "internalType": "address",
          "name": "",
          "type": "address"
        }
      ],
      "payable": false,
      "stateMutability": "view",
      "type": "function"
    },
    {
      "constant": false,
      "inputs": [],
      "name": "renounceOwnership",
      "outputs": [],
      "payable": false,
      "stateMutability": "nonpayable",
      "type": "function"
    },
    {
      "constant": false,
      "inputs": [
        {
          "internalType": "address",
          "name": "newOwner",
          "type": "address"
        }
      ],
      "name": "transferOwnership",
      "outputs": [],
      "payable": false,
      "stateMutability": "nonpayable",
      "type": "function"
    },
    {
      "constant": false,
      "inputs": [
        {
          "internalType": "address payable[]",
          "name": "destinations",
          "type": "address[]"
        },
        {
          "internalType": "uint256[]",
          "name": "amounts",
          "type": "uint256[]"
        }
      ],
      "name": "send",
      "outputs": [],
      "payable": true,
      "stateMutability": "payable",
      "type": "function"
    },
    {
      "constant": false,
      "inputs": [
        {
          "internalType": "address",
          "name": "token",
          "type": "address"
        },
        {
          "internalType": "address[]",
          "name": "_contributors",
          "type": "address[]"
        },
        {
          "internalType": "uint256[]",
          "name": "_balances",
          "type": "uint256[]"
        }
      ],
      "name": "multisendToken",
      "outputs": [],
      "payable": false,
      "stateMutability": "nonpayable",
      "type": "function"
    },
    {
      "constant": false,
      "inputs": [
        {
          "internalType": "uint256",
          "name": "amount",
          "type": "uint256"
        }
      ],
      "name": "withdraw",
      "outputs": [],
      "payable": false,
      "stateMutability": "nonpayable",
      "type": "function"
    },
    {
      "constant": false,
      "inputs": [],
      "name": "withdrawAll",
      "outputs": [],
      "payable": false,
      "stateMutability": "nonpayable",
      "type": "function"
    },
    {
      "constant": false,
      "inputs": [
        {
          "internalType": "address",
          "name": "token",
          "type": "address"
        },
        {
          "internalType": "uint256",
          "name": "value",
          "type": "uint256"
        }
      ],
      "name": "withdrawToken",
      "outputs": [],
      "payable": false,
      "stateMutability": "nonpayable",
      "type": "function"
    }
  ],
  "bytecode": "0x60806040526100126100d260201b60201c565b6000806101000a81548173ffffffffffffffffffffffffffffffffffffffff021916908373ffffffffffffffffffffffffffffffffffffffff1602179055506000809054906101000a900473ffffffffffffffffffffffffffffffffffffffff1673ffffffffffffffffffffffffffffffffffffffff16600073ffffffffffffffffffffffffffffffffffffffff167f8be0079c531659141344cd1fd0a4f28419497f9722a3daafe3b4186f6b6457e060405160405180910390a36100da565b600033905090565b6110f7806100e96000396000f3fe6080604052600436106100865760003560e01c80638da5cb5b116100595780638da5cb5b1461026d5780638f32d59b146102c45780639e281a98146102f3578063a645ff5f1461034e578063f2fde38b1461049a57610086565b80630b66f3f51461008b5780632e1a7d4d14610204578063715018a61461023f578063853828b614610256575b600080fd5b34801561009757600080fd5b50610202600480360360608110156100ae57600080fd5b81019080803573ffffffffffffffffffffffffffffffffffffffff169060200190929190803590602001906401000000008111156100eb57600080fd5b8201836020820111156100fd57600080fd5b8035906020019184602083028401116401000000008311171561011f57600080fd5b919080806020026020016040519081016040528093929190818152602001838360200280828437600081840152601f19601f8201169050808301925050505050505091929192908035906020019064010000000081111561017f57600080fd5b82018360208201111561019157600080fd5b803590602001918460208302840111640100000000831117156101b357600080fd5b919080806020026020016040519081016040528093929190818152602001838360200280828437600081840152601f19601f8201169050808301925050505050505091929192905050506104eb565b005b34801561021057600080fd5b5061023d6004803603602081101561022757600080fd5b8101908080359060200190929190505050610839565b005b34801561024b57600080fd5b506102546108fd565b005b34801561026257600080fd5b5061026b610a36565b005b34801561027957600080fd5b50610282610ad2565b604051808273ffffffffffffffffffffffffffffffffffffffff1673ffffffffffffffffffffffffffffffffffffffff16815260200191505060405180910390f35b3480156102d057600080fd5b506102d9610afb565b604051808215151515815260200191505060405180910390f35b3480156102ff57600080fd5b5061034c6004803603604081101561031657600080fd5b81019080803573ffffffffffffffffffffffffffffffffffffffff16906020019092919080359060200190929190505050610b59565b005b6104986004803603604081101561036457600080fd5b810190808035906020019064010000000081111561038157600080fd5b82018360208201111561039357600080fd5b803590602001918460208302840111640100000000831117156103b557600080fd5b919080806020026020016040519081016040528093929190818152602001838360200280828437600081840152601f19601f8201169050808301925050505050505091929192908035906020019064010000000081111561041557600080fd5b82018360208201111561042757600080fd5b8035906020019184602083028401116401000000008311171561044957600080fd5b919080806020026020016040519081016040528093929190818152602001838360200280828437600081840152601f19601f820116905080830192505050505050509192919290505050610ca0565b005b3480156104a657600080fd5b506104e9600480360360208110156104bd57600080fd5b81019080803573ffffffffffffffffffffffffffffffffffffffff169060200190929190505050610e87565b005b6104f3610afb565b610565576040517f08c379a00000000000000000000000000000000000000000000000000000000081526004018080602001828103825260208152602001807f4f776e61626c653a2063616c6c6572206973206e6f7420746865206f776e657281525060200191505060405180910390fd5b60c8825111156105dd576040517f08c379a00000000000000000000000000000000000000000000000000000000081526004018080602001828103825260128152602001807f417272617920697320746f6f206c61726765000000000000000000000000000081525060200191505060405180910390fd5b8051825114610637576040517f08c379a00000000000000000000000000000000000000000000000000000000081526004018080602001828103825260438152602001806110806043913960600191505060405180910390fd5b6000809050600084905060008090505b8451811015610792578173ffffffffffffffffffffffffffffffffffffffff166323b872dd3387848151811061067957fe5b602002602001015187858151811061068d57fe5b60200260200101516040518463ffffffff1660e01b8152600401808473ffffffffffffffffffffffffffffffffffffffff1673ffffffffffffffffffffffffffffffffffffffff1681526020018373ffffffffffffffffffffffffffffffffffffffff1673ffffffffffffffffffffffffffffffffffffffff1681526020018281526020019350505050602060405180830381600087803b15801561073157600080fd5b505af1158015610745573d6000803e3d6000fd5b505050506040513d602081101561075b57600080fd5b81019080805190602001909291905050505083818151811061077957fe5b6020026020010151830192508080600101915050610647565b507f0af5cd7514dd3f3c0a87047e97f54d6007b3865c0daea4aaf8a68d0c4911f9a7338387604051808473ffffffffffffffffffffffffffffffffffffffff1673ffffffffffffffffffffffffffffffffffffffff1681526020018381526020018273ffffffffffffffffffffffffffffffffffffffff1673ffffffffffffffffffffffffffffffffffffffff168152602001935050505060405180910390a15050505050565b610841610afb565b6108b3576040517f08c379a00000000000000000000000000000000000000000000000000000000081526004018080602001828103825260208152602001807f4f776e61626c653a2063616c6c6572206973206e6f7420746865206f776e657281525060200191505060405180910390fd5b3373ffffffffffffffffffffffffffffffffffffffff166108fc829081150290604051600060405180830381858888f193505050501580156108f9573d6000803e3d6000fd5b5050565b610905610afb565b610977576040517f08c379a00000000000000000000000000000000000000000000000000000000081526004018080602001828103825260208152602001807f4f776e61626c653a2063616c6c6572206973206e6f7420746865206f776e657281525060200191505060405180910390fd5b600073ffffffffffffffffffffffffffffffffffffffff166000809054906101000a900473ffffffffffffffffffffffffffffffffffffffff1673ffffffffffffffffffffffffffffffffffffffff167f8be0079c531659141344cd1fd0a4f28419497f9722a3daafe3b4186f6b6457e060405160405180910390a360008060006101000a81548173ffffffffffffffffffffffffffffffffffffffff021916908373ffffffffffffffffffffffffffffffffffffffff160217905550565b610a3e610afb565b610ab0576040517f08c379a00000000000000000000000000000000000000000000000000000000081526004018080602001828103825260208152602001807f4f776e61626c653a2063616c6c6572206973206e6f7420746865206f776e657281525060200191505060405180910390fd5b610ad03073ffffffffffffffffffffffffffffffffffffffff1631610839565b565b60008060009054906101000a900473ffffffffffffffffffffffffffffffffffffffff16905090565b60008060009054906101000a900473ffffffffffffffffffffffffffffffffffffffff1673ffffffffffffffffffffffffffffffffffffffff16610b3d610f0d565b73ffffffffffffffffffffffffffffffffffffffff1614905090565b610b61610afb565b610bd3576040517f08c379a00000000000000000000000000000000000000000000000000000000081526004018080602001828103825260208152602001807f4f776e61626c653a2063616c6c6572206973206e6f7420746865206f776e657281525060200191505060405180910390fd5b60008290508073ffffffffffffffffffffffffffffffffffffffff1663a9059cbb33846040518363ffffffff1660e01b8152600401808373ffffffffffffffffffffffffffffffffffffffff1673ffffffffffffffffffffffffffffffffffffffff16815260200182815260200192505050602060405180830381600087803b158015610c5f57600080fd5b505af1158015610c73573d6000803e3d6000fd5b505050506040513d6020811015610c8957600080fd5b810190808051906020019092919050505050505050565b60c882511115610d18576040517f08c379a00000000000000000000000000000000000000000000000000000000081526004018080602001828103825260128152602001807f417272617920697320746f6f206c61726765000000000000000000000000000081525060200191505060405180910390fd5b8051825114610d72576040517f08c379a00000000000000000000000000000000000000000000000000000000081526004018080602001828103825260438152602001806110806043913960600191505060405180910390fd5b600080905060008090505b8351811015610e1657838181518110610d9257fe5b602002602001015173ffffffffffffffffffffffffffffffffffffffff166108fc848381518110610dbf57fe5b60200260200101519081150290604051600060405180830381858888f19350505050158015610df2573d6000803e3d6000fd5b50828181518110610dff57fe5b602002602001015182019150600181019050610d7d565b507f8634097b233e8492fede3ceebfcf272d7cba7a7914c568969897493e9e3cc2053382604051808373ffffffffffffffffffffffffffffffffffffffff1673ffffffffffffffffffffffffffffffffffffffff1681526020018281526020019250505060405180910390a1505050565b610e8f610afb565b610f01576040517f08c379a00000000000000000000000000000000000000000000000000000000081526004018080602001828103825260208152602001807f4f776e61626c653a2063616c6c6572206973206e6f7420746865206f776e657281525060200191505060405180910390fd5b610f0a81610f15565b50565b600033905090565b600073ffffffffffffffffffffffffffffffffffffffff168173ffffffffffffffffffffffffffffffffffffffff161415610f9b576040517f08c379a000000000000000000000000000000000000000000000000000000000815260040180806020018281038252602681526020018061105a6026913960400191505060405180910390fd5b8073ffffffffffffffffffffffffffffffffffffffff166000809054906101000a900473ffffffffffffffffffffffffffffffffffffffff1673ffffffffffffffffffffffffffffffffffffffff167f8be0079c531659141344cd1fd0a4f28419497f9722a3daafe3b4186f6b6457e060405160405180910390a3806000806101000a81548173ffffffffffffffffffffffffffffffffffffffff021916908373ffffffffffffffffffffffffffffffffffffffff1602179055505056fe4f776e61626c653a206e6577206f776e657220697320746865207a65726f2061646472657373746865206c656e677468206f6620626f74682064657374696e6174696f6e7320616e6420616d6f756e74732061727261797320617265206e6f74206d61746368696e67a265627a7a723158200f2b4c300417a76143151f6d244bdccf3124fa96d53c8112da996f03bf4f255164736f6c634300050c0032",
  "source": "pragma solidity ^0.5.12;\nimport \"@openzeppelin/contracts/math/SafeMath.sol\";\nimport \"@openzeppelin/contracts/ownership/Ownable.sol\";\n\n/**\n * @title ERC20Basic\n * @dev Simpler version of ERC20 interface\n * @dev see https://github.com/ethereum/EIPs/issues/179\n */\ncontract ERC20Basic {\n    function totalSupply() public view returns (uint256);\n    function balanceOf(address who) public view returns (uint256);\n    function transfer(address to, uint256 value) public returns (bool);\n    event Transfer(address indexed from, address indexed to, uint256 value);\n}\n\n\ncontract ERC20 is ERC20Basic {\n    function allowance(address owner, address spender) public view returns (uint256);\n    function transferFrom(address from, address to, uint256 value) public returns (bool);\n    function approve(address spender, uint256 value) public returns (bool);\n    event Approval(address indexed owner, address indexed spender, uint256 value);\n}\n\n\ncontract Multisend is Ownable {\n    using SafeMath for uint256;\n\n    event etherMultisended(address from, uint256 total);\n    event tokenMultisended(address from, uint256 total, address tokenAddress);\n\n\n    function send(address payable[] memory destinations, uint256[] memory amounts) public payable {\n        require(destinations.length <= 200, \"Array is too large\");\n        require(destinations.length == amounts.length, \"the length of both destinations and amounts arrays are not matching\");\n        uint256 total = 0;\n        for (uint256 i = 0; i < destinations.length; i += 1)\n        {\n            destinations[i].transfer(amounts[i]);\n            total += amounts[i];\n        }\n        emit etherMultisended(msg.sender, total);\n    }\n\n    function multisendToken(address token, address[] memory _contributors, uint256[] memory _balances)\n    public onlyOwner {\n        require(_contributors.length <= 200, \"Array is too large\");\n        require(_contributors.length == _balances.length, \"the length of both destinations and amounts arrays are not matching\");\n        uint256 total = 0;\n        ERC20 erc20token = ERC20(token);\n        for (uint256 i = 0 ; i < _contributors.length; i++) {\n            erc20token.transferFrom(msg.sender, _contributors[i], _balances[i]);\n            total += _balances[i];\n        }\n        emit tokenMultisended(msg.sender, total, token);\n    }\n\n    // Just in case of bad things happened in `send`,\n    // as the owner we can still withdraw balance in contract\n    function withdraw(uint256 amount) public onlyOwner {\n        address(msg.sender).transfer(amount);\n    }\n\n    function withdrawAll() public onlyOwner {\n        withdraw(address(this).balance);\n    }\n\n    function withdrawToken(address token, uint256 value) public onlyOwner {\n        ERC20 erc20token = ERC20(token);\n        erc20token.transfer(msg.sender, value);\n    }\n\n}",
  "sourcePath": "/Users/frankwei/Code/soildity/truffle/contracts/Multisend.sol",
  "compiler": {
    "name": "solc",
    "version": "0.5.12+commit.7709ece9.Emscripten.clang"
  },
  "schemaVersion": "3.0.19",
  "updatedAt": "2020-02-18T08:36:57.730Z",
  "devdoc": {
    "methods": {
      "isOwner()": {
        "details": "Returns true if the caller is the current owner."
      },
      "owner()": {
        "details": "Returns the address of the current owner."
      },
      "renounceOwnership()": {
        "details": "Leaves the contract without owner. It will not be possible to call `onlyOwner` functions anymore. Can only be called by the current owner.     * NOTE: Renouncing ownership will leave the contract without an owner, thereby removing any functionality that is only available to the owner."
      },
      "transferOwnership(address)": {
        "details": "Transfers ownership of the contract to a new account (`newOwner`). Can only be called by the current owner."
      }
    }
  },
  "userdoc": {
    "methods": {}
  }
}